:020000022000DC
:106000000000012079630200616302006363020003
:10601000656302006763020069630200000000001C
:106020000000000000000000000000006B630200A0
:106030006D630200000000006F63020071630200E4
:10604000B99C020073630200FDA0020069AE020069
:106050007363020073630200819F02007363020096
:1060600073630200736302007363020073630200D0
:1060700073630200736302007363020073630200C0
:1060800073630200117802007363020073630200FD
:1060900073630200736302001D0103007363020057
:1060A0007363020073630200736302007363020090
:1060B0007363020073630200000000000000000030
:1060C0007363020073630200736302007363020070
:1060D0007363020073630200736302000000000038
:1060E00000000000000000000000000000000000B0
:1060F00000000000000000000000000000000000A0
:10610000000000000000000000000000000000008F
:10611000000000000000000000000000000000007F
:10612000000000000000000000000000000000006F
:10613000000000000000000000000000000000005F
:10614000000000000000000000000000000000004F
:10615000000000000000000000000000000000003F
:10616000000000000000000000000000000000002F
:10617000000000000000000000000000000000001F
:10618000000000000000000000000000000000000F
:1061900000000000000000000000000000000000FF
:1061A00000000000000000000000000000000000EF
:1061B00000000000000000000000000000000000DF
:1061C00000000000000000000000000000000000CF
:1061D00000000000000000000000000000000000BF
:1061E00000000000000000000000000000000000AF
:1061F000000000000000000000000000000000009F
:10620000364937480A1A02D0072291438D4635494C
:1062100035480A1A06D00722914381F309880222E1
:1062200082F3148831483249324A00F045F8324846
:106230003249334A00F040F832483349334A00F0DB
:106240003BF833483349344A00F036F83348344990
:10625000344A00F031F834483449354A00F02CF81B
:1062600034483549354A00F027F835483549002289
:1062700000F02DF834483549002200F028F8344861
:106280003449091A082903DB002202600430016046
:10629000314A90471F482049884205D0026804309F
:1062A00003B4904703BCF7E700208646EC46002085
:1062B00000212A4A9047FEE7884207D0521A05D0AB
:1062C000037801300B700131013AF9D170478842EF
:1062D00002D002700130FAE7704700000000012090
:1062E00000E000200000012000000120C831030070
:1062F00064220020C8220020D4630200D46302007C
:10630000920A0300C83103006422002064220020A6
:10631000240C0300240C0300240C0300240C0300B1
:10632000240C0300240C0300240C0300240C0300A1
:10633000C83103002C320300C8220020C8220020EC
:10634000C82200204C3800204C3800204C38002057
:106350004C3800204C580020A163020061B80200B4
:10636000FEE7FEE7FEE7FEE7FEE7FEE7FEE7FEE705
:10637000FEE7FEE700F002B8FFF7FCBF0F484FF062
:106380000701884385460E4880470E48016841F45E
:1063900070010160BFF34F8FBFF36F8FFFF730BF06
:1063A00009480A490A4A884207D0521A05D0037898
:1063B00001300B700131013AF9D170470000012022
:1063C000D196020088ED00E0100C0300502200205E
:0463D0006422002023
:1063D4007047000007B5044B0093044A402300F0C3
:1063E40032F803B05DF804FBF5630200C922002013
:1063F4002DE9F84389461446B2B10F4B0F4E0325DD
:10640400002743F00108224609EB0701002005F0AC
:10641400E9FB0744241A48B933782BB14FF47A4086
:10642400C047013D02D13570BDE8F88301233370C4
:10643400002CE8D1F8E700BF300C0300C82200208C
:10644400704705F003BCF0B595B01C4616460846E7
:106454000D4603F02BF81A9B0D93CDE90864002434
:106464002346082205A928460A948DF82C400C944A
:1064740003F03AF8079B0293BDF81830ADF80C30DE
:10648400BDF81A30ADF80E309DF814308DF8114077
:1064940003F00302012A1DD1BDF81440059EC3F385
:1064A400C203C4F383148DF81030A20008230EA98C
:1064B400284603F019F8C6F3952608AB0093224644
:1064C40002AB0EA9304600F00FFC284602F0F2FFA2
:1064D40015B0F0BD022AF8D1BDF81640C3F3C203CB
:1064E400A4098DF810300827082C264628BF082652
:1064F4003B4632460EA9284602F0F6FFA41B08AB21
:1065040002AA31460EA8374400F052FC002CEBD10D
:10651400DBE70000014B01221A7070474A23002078
:106524007047000070B50E4D06460FCD88B06C461E
:106534000FC495E80F0084E80F0008A9002E4FF05F
:106544000603084A41F8203D08BF0022064803F02C
:1065540047FB08B100F0FAFD044B1E7008B070BD93
:10656400440C030019650200642200200923002062
:1065740007B5044B0093044A4023FFF764FF03B0BC
:106584005DF804FB916502000A23002038B50D4B29
:106594000D4D002018700D4804782D5DD2B21C46B4
:1065A40065B1043004F006FA08B100F0CFFD084BE1
:1065B4001A7812B12378002BFBD038BD0C3003F0CD
:1065C400C9FFF1E74A230020C02B002064220020E9
:1065D4000923002008B50848084A0378D35C3BB176
:1065E400043004F071F90020BDE80840FFF79ABFB9
:1065F4000C3003F04BFFF6E764220020C02B002090
:106604000120FFF78FBF000038B50A4DFFF719FFCF
:106614000421284600F0D6FA074B01245C71FFF7E9
:10662400EFFF042105F1100000F0CCFA034B5C717C
:1066340038BD00BFF00B0300782200208022002028
:10664400037813F0040216D003F00303012B03D0E4
:10665400022B09D0012070470A6800880232C0F377
:10666400831002440A60F5E70B684288023303EBA7
:1066740092130B60EEE71046704700002DE9F04FCF
:1066840089B00546861C08A8484C019200230F4691
:1066940000F8113D00F04CFF23683B60D4E901236E
:1066A4001344226801339B1A04F21C4704F5836ADD
:1066B40004F21448B3421AD3019A0023002A6DD07D
:1066C400012262F3010343F0040365F38913216893
:1066D400A2689DF80F000A4003320E4444F82230A9
:1066E400266000F049FF012009B0BDE8F08F0121C8
:1066F400384602F055F9504602F06BF9404602F074
:1067040068F90DF120096068D4F808B049F8100D53
:1067140000EA0B00033004EB80004946FFF790FFCA
:10672400049BB0B90BEA030204EB8202D168059121
:106734009A1C013303EA0B0B04EB8B0C01F00303EB
:10674400012B0492DCF80CB020D0022B04D0834639
:106754000BE00BEA0300DDE7BDF816309B090333B9
:106764004FEA1B4B02EB93030493404602F034F9C7
:1067740008B1049B63605946384602F011F9D4E924
:1067840001231344226801339B1A93E7BDF81430A4
:10679400C3F383134FEA1B4B1344E5E7022262F36E
:1067A400010343F0040365F39F5390E71C24002086
:1067B4000B4B0C48FF2210B59A600022C3F8182432
:1067C400C3E90022C3F8142483F8202402F027FE2E
:1067D400044610B9044802F0D1FE204610BD00BFA3
:1067E4001C2400200C0B0300940C030030B50A4C4D
:1067F40071B10A4A0A49121BD20800239A4201D1F4
:10680400002030BD31F82350854202D00133F5E732
:10681400034654F83300F4E7200B0300F00B0300A5
:1068240064220020094B013903EBC000032909D875
:10683400DFE801F00A02040604207047007970477B
:10684400407970470020704702207047200B0300F6
:10685400034BD3E90030C31A58425841704700BF74
:106864001C2400202DE9F04387B0FFF7F1FF064612
:10687400002840F0FC807F4DC5F81804BFF34F8F0B
:106884006868AC6806AF47F8100D2040033005EB8C
:1068940080003946FFF7D4FE029B18B1D5F81824BE
:1068A400002A5FD004EA0302991C013305EB82023B
:1068B400234005EB8303D268DB68049302F00303EF
:1068C400022B0392029162D1BDF80E306A484FEA5E
:1068D4009318B8F1500FC14628BF4FF0500969F31F
:1068E4008F1309F10801ADF80E3002F0B0FD074630
:1068F400002800F0A78002F0D9FD03A90023082294
:10690400384602F0E6FD029924EA01060136B60093
:10691400B14535D95FFA89F97EB3F6B2A9EB060918
:10692400214003315FFA89F4B146544E05EB8101ED
:1069340008234A46384602F0CCFD36B109F1080373
:1069440022463146384602F0C4FD029B08F1030892
:1069540003EB98030293D5F81834002B4BD1D5F8E8
:1069640010445BE02A689A4204D86A60304607B053
:10697400BDE8F08304EA030088E740493446D7E7DA
:106984002140033108234A4605EB8101DAE7012B54
:1069940058D1BDF80C303848C3F38311062928BFF9
:1069A400062161F3891302318900ADF80C3002F03D
:1069B4004EFD0746002845D002F078FD002308224A
:1069C40003A9384602F085FD0026BDF80C20C2F369
:1069D4008312B31C96424FEA8303BCD202994A1C29
:1069E40021400331029205EB81010422384602F072
:1069F40070FD0136E9E7384602F05CFDFFF728FF39
:106A040080F00100C6B2B1E7E3685B7923B1236883
:106A140039461B6820469847E3681C68002CF3D16C
:106A2400384602F047FD06A800F8114D00F080FD3D
:106A3400D5F818340BB9029B6B609DF8070000F081
:106A44009BFDDBE7D5F8104454B90D4B0D480E49B6
:106A5400C01AC008000440F0020000F06FF8CDE74F
:106A6400236820469B689847E3681C68ECE7002687
:106A74007CE700BF1C2400200C0B0300282400200A
:106A8400200B0300500B0300A00C03002DE9F74F6B
:106A9400284C80460F46924601A9012218469B467F
:106AA400D4F80890FFF7EAFD88B3019D0026A91CDD
:106AB4005E4506EB010234D100211F4801F02FFF8F
:106AC40080F310006A1C02EA090204EB820200044B
:106AD40005EA0903033340EA1840D06014F8232080
:106AE40068F3C50204F8232034F8232066F38912DE
:106AF40024F8232054F82320012167F39F2244F82B
:106B0400232061F301026FF3820204F8232094F836
:106B140020341BB1FFF7A6FE0028FBD103B0BDE86B
:106B2400F08F09EA020204EB82025AF82630D3609D
:106B34000136BDE71C2400203828002000231A4613
:106B4400FFF7A4BF13B502AC012344F8042D224679
:106B5400FFF79CFF02B010BD07B5CDE90023022367
:106B64006A46FFF793FF03B05DF804FB1FB5CDE958
:106B74000123069B039301AA0323FFF787FF05B0B4
:106B84005DF804FB1FB5CDE90023069B0293079B28
:106B940003936A460423FFF779FF05B05DF804FB0D
:106BA4007FB5CDE90023089B0293099B03930A9BBD
:106BB40004930B9B05936A460623FFF767FF07B010
:106BC4005DF804FB30B50F49D1F8102400231446B6
:106BD4003CB9C468237152B9C1F810042260184644
:106BE40030BDE46825799D4206D02468F0E7D26878
:106BF400116821601060F2E701330A2BE7D14FF0EE
:106C0400FF33ECE71C240020094A38B50123D2F8ED
:106C1400104482F820341D4604B938BDE3685D7120
:106C2400236820465B689847E3681C68F4E700BF64
:106C34001C240020037A052B10B50C460FD0437A90
:106C440023B1084A0849204601F027FF0749204696
:106C540001F023FF2046BDE8104001F013BF002AD5
:106C6400F8D0F3E7EB0C03007F2403000D0D0300C1
:106C7400C38873B504460D4633B1144A00921449CF
:106C8400144A284601F009FF217A05291CD0637AA9
:106C94004BB1A088FFF7C6FD0F4B104953F82020D5
:106CA400284601F0FAFE227A0D4BA08853F82260A0
:106CB4000021FFF79BFD0B4903463246284602B0EC
:106CC400BDE8704001F0E9BE02B070BDEB0C0300FA
:106CD400F80C0300F00C0300B80C03007F2403003D
:106CE4001C0D0300100D03002DE9F04385B01F4671
:106CF4000C9D002306460C46904695F80C902B7389
:106D040029463846FFF7B4FFB8F1060F09D8DFE883
:106D140008F00412181F283340003146284601F0B9
:106D2400BCFE002229463846FFF784FF85F80C9004
:106D340005B0BDE8F08322683146284601F0ADFE77
:106D4400EFE7D4E900233146284601F0A6FEE8E740
:106D5400A36800933146D4E90023284601F09DFE40
:106D6400DFE7E3680193A36800933146D4E9002385
:106D7400284601F092FED4E723690293E368019365
:106D8400A36800933146D4E90023284601F085FE28
:106D9400C7E76369039323690293E3680193A368D4
:106DA40000933146D4E90023284601F076FEB8E783
:106DB40008292DE9F84F80460E4617461C463AD856
:106DC400002593F80C901D7319461046FFF750FFE9
:106DD400DFF884A0DFF884B0AE422ED918F805207D
:106DE4005946204601F059FE0135082DF4D11849C1
:106DF400DFF86CB0204601F050FE4FF0000A564513
:106E040020D918F80A507E2D03D8284609F056FDDB
:106E140000B92E252A465946204601F03EFE0AF1C5
:106E2400010ABAF1080FEAD1012221463846FFF7D8
:106E340001FF84F80C90BDE8F88F5146204601F01C
:106E44002CFED1E70349204601F027FEE7E700BF07
:106E5400E60C0300E40C0300E20C0300DC0C03006A
:106E6400E80C0300C30710B507D4F0234008054A13
:106E7400145C23401943115410BD0901C9B20F23F6
:106E8400F4E700BF0829002030B5094B1C78094BF2
:106E9400196800239C4202DC0022104630BD11F820
:106EA4003350854201EBC302F7D00133F2E700BF50
:106EB400D82800201829002070B504460D46FFF795
:106EC400E3FF30B1436823B129462046BDE8704052
:106ED400184770BD034B044819680022490800F0A4
:106EE4003ABA00BFDC280020E028002010B5C0B268
:106EF400FFF7CAFF0446007803F036F863785A1E99
:106F040053425341834208D1044BD3E90023134332
:106F140003D1BDE81040FFF7DDBF10BD00290020FC
:106F24002DE9F348394A43080446D35CC2074CBFF1
:106F34001B0903F00F030D46042B39D8DFE803F0D7
:106F44000328303D410099B30121FFF78BFF02A8CC
:106F5400002600F8016D00F0EBFA2D4D0121A4F19B
:106F64002007C4F1200001FA07FC21FA00F04CEAE2
:106F7400000C01FA04FBD5E900014BEA00024CEADB
:106F84000103C5E900239DF8070000F0F5FA0FE0BE
:106F9400002914BF022100212046FFF763FF07E008
:106FA40049B10321FFF75EFF01212046FFF784FF6B
:106FB40002B0BDE8F0880121EEE70029F8D10421F0
:106FC400EAE709B10321E7E7FFF74CFF294620462A
:106FD400FFF772FF02A80E4E00F8015D00F0A8FA58
:106FE400A4F120070121C4F1200001FA07FC21FAD1
:106FF40000F04CEA000C01FA04FBD6E9000120EA97
:107004000B0221EA0C03C6E90023BCE7082900208F
:10701400002900202DE9F041124E134F002433784B
:10702400A34208DC114BD3E90023134318D0BDE875
:10703400F041FFF74FBF3D6805EBC40815F8340075
:1070440002F092FF98F801104B1E594259410A1A56
:10705400514215F834005141FFF762FF0134DEE775
:10706400BDE8F081D828002018290020002900203C
:10707400092AF7B505460C4616463FD902F0ACFE80
:10708400D8B11F4B1F481D601F4B204F1C70204B55
:10709400002110221E6009F075FC1E4B0020002107
:1070A400C3E90001013CE4B20326FF2C0BD11A4AC8
:1070B4001A48002100F044F903E002F057FE0028CA
:1070C400DFD003B0F0BD9DF806308DF8046020B227
:1070D40003F0FC0305EBC0026FF382038DF8063066
:1070E400937815F830008DF805303A4601A902F07E
:1070F4007DFE013CE4B20028D7D0E2E70720E0E7B8
:107104001829002008290020D8280020F16E020048
:10711400DC28002000290020197002007C0D0300E7
:1071240070B5084D084E00242B789C4201D30020F2
:1071340070BD3368012113F8340002F0CFFE01342E
:10714400F2E700BFD8280020182900201FB500212D
:10715400039001AA44F20100CDE9011100F004F802
:1071640005B05DF804FB000010B572B6FFF74CFDE6
:10717400FFF778FB0028FBD1104B114C1149E41A9E
:10718400E408240444F00100FFF7D8FC0E4B1B680C
:10719400DB0700D500BE0D4944F00200FFF7CEFC2A
:1071A400BFF34F8F0A490B4BCA6802F4E0621343E2
:1071B400CB60BFF34F8F00BFFDE700BF200B030080
:1071C400500B03008B0D0300F0ED00E0970D03005E
:1071D40000ED00E00400FA05D0E90223D1E9020140
:1071E400994208BF90422CBF012000207047000044
:1071F4002DE900480C4800F0F5FA0C4BD3E90023C4
:1072040012EB000B43F1000C094BD3E900239C451E
:1072140008BF93455846614603D21BF180704CF178
:107224000001BDE8008800BF88220020202900203A
:107234009829002037B505460C460A4801A901F0F3
:10724400A2FA60B10570446001A9064801F0C5FACC
:1072540018B1054800F0CAFA002003B030BD04207C
:10726400FBE700BF8429002088220020194B1B78EB
:107274002DE9304804461BB900252846BDE830886E
:107284000028F9D0037F03F0FF05002BF4D0FFF7AB
:10729400AFFFD4E90223994208BF904215D3236972
:1072A40003B92377D4E90530984721690029E3D04D
:1072B400237F03F0FF05002BDED0D4E9022312EB79
:1072C400010B43F1000CC4E902BC2146024802F060
:1072D40074F9D2E728290020A80D030013B5114B37
:1072E40011491868019008235822104801F016FA31
:1072F400044698B90E4A0F4801A900F061F9044602
:1073040060B901210B4800F04FFA01230A4A0948E9
:10731400194600F0B3F9094B01221A70204602B055
:1073240010BD00BFA40D03002C29002084290020D7
:10733400A573020088220020FFFF7F002829002077
:107344003AB103685A614A1E514251411961002001
:1073540070470720704738B5037F04460D4683B94C
:107364008261FFF745FF421941F10003C4E902239A
:10737400236903B1256121460020BDE83840FFF7A9
:1073840059BF002038BD0023014603770120FFF7D1
:1073940051BF0000014800F025BA00BF8822002038
:1073A4002DE9F74F064600F007FA40B15849D1E9F4
:1073B400002312F1807443F10005C1E90045002166
:1073C400304600F008FA38B1524C236823B12068E3
:1073D400FFF74CFF002323600121304600F0FBF946
:1073E40020B1FFF705FF4C4BC3E9000101A94B484D
:1073F400484D4B4C4B4F01F000FA002844D1DFF8C4
:1074040020A1444CDFF824B1504602F0ECF8236884
:10741400002874D07BB12368D0E90201D3E90223A8
:10742400994208BF90422CD223681B7F1BB121686C
:10743400504602F0C2F8504602F0CFF8D0E9028973
:107444000746FFF7D5FEB8EB000869EB0109404693
:107454004B46012873F1000344DB334DA8453FD963
:10746400FFF798FF42194FF496030021584600F0A5
:1074740025F900283ED1236813B9304600F0F6F808
:10748400276003B0BDE8F08F0378012B1DD00BD328
:10749400022B11D14FF00008204602F09EF800287C
:1074A40033D080F81C80F7E741680B7F23B90123B0
:1074B4000B77204602F081F801A9184801F0C8F9B9
:1074C40001A9164801F099F997E741682B68994298
:1074D40002D100232B60EFE7204602F087F8EBE7A8
:1074E400BA68C0E70021584600F06BF93846FFF748
:1074F400BDFE01E00D28F9D00023236084E7002BB2
:10750400BFD1304600F0B6F8BBE701233B70D3E7A8
:1075140020290020A0290020982900208429002067
:10752400A80D030028290020FFFFB40088220020B2
:1075340070B5EFF3108672B60C4A946801239CB9B7
:1075440093600B4B0B4DD3F8801029401160C3F8A6
:107554008050D3F8841051604FF0FF32C3F8842078
:10756400047006B962B670BD0370FAE7A42900205E
:1075740000E100E0FC06FFBD084B9A6810B55AB163
:1075840050B9EFF3108172B6054A1C6814605C6848
:107594005460986001B962B610BD00BFA4290020F0
:1075A40000E100E0435882B03BB10023435043580C
:1075B4000193019B012002B070471846FBE70000CD
:1075C400F8B5224B4679224D43F82620214A224B16
:1075D400F7009B1AEA19DB0812791B0432B143F055
:1075E40002001E49FFF7AAFA0820F8BD02680C88B9
:1075F400C2F8084590F904208978002AA8BF02F14E
:10760400604CD4B2BABF04F00F0EDFF858C00CF5CA
:10761400614C4FEA4111C9B2B4BF0CF80E108CF89A
:10762400001352090121DFF840C004F01F042F4465
:1076340001FA04F44CF82240397145F8360008493F
:1076440043F00300FFF77AFA0020CEE7B8290020C0
:10765400B0290020200B0300600B0300C60D0300BB
:10766400E80D030014ED00E000E100E003680122EE
:107674001A607047036801225A60704773B58D0021
:1076840005F5A0750068ADB24FF480348C40002637
:10769400C0F80843C0F84843465101F5A87145595C
:1076A400019522F07F42019D40F82120C0F8444317
:1076B4000BB1C0F8044302B070BD00002DE9F74FD0
:1076C4008E0098464FF4803503688D4006F5A07906
:1076D400C3F848531FFA89F9C3F8085307469819A1
:1076E4008A464FF0000BD3F8041522F07F44D0F8FB
:1076F4004025C0F8401543F809B053F80930009309
:10770400009B531A23F07F43012B0CD1254B4FF4DC
:10771400806043F0010398473B6843F809B053F88D
:1077240009300193019B3868D0F80495C0F844539C
:10773400A4EB090323F07F43012B1AD10AF5A87A9D
:10774400184B013440F82A4043F001034FF48060A1
:1077540098473B68D3F80435994508D13B68002025
:10776400C3F84453C3F8045303B0BDE8F08F0D20AD
:10777400FAE70644C8F1FF18C6F84045D0F80435C6
:10778400E21A013A22F07F4208F57F489045EED391
:10779400002AE3D10134C6F84045D0F804259342C9
:1077A400DBE700BFC00D030003680222C3F84423D3
:1077B40009B1C3F8042370474FF482710068FFF7DE
:1077C400F1BE4FF4803303FA01F10368C3F84813A0
:1077D400C3F808137047890001F5A07189B20068E5
:1077E400FFF7E0BE0368D3F80405704790F904304E
:1077F40001215A0903F01F0301FA03F3403202493D
:1078040041F82230704700BF00E100E0024B034A18
:107814001B681068184700BFB8290020B029002051
:1078240070B5064E0546002456F824300BB12846A0
:1078340098470134042CF7D170BD00BFC82900203B
:10784400033080B240F2FE33984230B51FD8134B58
:107854001A783AB91C895D892C440444A4B2B4F55D
:10786400806F0AD91A7DAAB99A8BDC8B2244024410
:1078740092B2B2F5806F0DD801220A801446142208
:1078840002FB04335A8910445881002030BD48F269
:107894000860FBE748F20660F8E700BFFC29002017
:1078A4000B4A0C4B5188142000FB0131CB6833B9CF
:1078B4000420496810700122074801F07BBB0523AE
:1078C4000649137002238B80012200230968F3E721
:1078D400E0290020FC29002050220020C42A002096
:1078E40007B5002305490093054A0968054808239C
:1078F40001F0CAFA03B05DF804FB00BFC42A0020FB
:10790400080E03005022002007B50023009301460F
:107914000823034A034801F0B7FA03B05DF804FBF7
:10792400000E03005022002013B500230C460093E0
:1079340001460423074A084801F0A6FA38B9074B60
:10794400142202FB04340123237402B010BD48F254
:107954000D60FAE7FC0D030050220020FC290020F2
:1079640037B50A480A4B42689C881968538803252E
:10797400033305709BB2002000909B0001EB84014F
:10798400044801F081FA03B030BD00BFE0290020B3
:10799400C42A00205022002010B50146044800F0FB
:1079A400F2FE1C220446002108F0ECFF204610BD24
:1079B400B02A00204388033300EB830399420BD39E
:1079C40082884FF6FF739A4208D0038833B18068E7
:1079D400431C5842584170470220704701207047A9
:1079E4002DE9F8430223DFF860800B800D4617462B
:1079F40000F5805600F108044FF00109B4420FD29B
:107A0400236801330CD031462046FFF7D3FF48B139
:107A14000FB187F8009002280BD14FF480632B80BC
:107A2400BDE8F883A368D8F80020934201D9C8F8C8
:107A340000302B886288033313442B80638803331C
:107A440004EB8304DAE700BFF4290020144A14236A
:107A540003FB002070B50B6844680D4604F580569E
:107A64009BB15C88033403EB8404B4420BD22368D7
:107A7400013308D031462046FFF79CFF012809D086
:107A840005D30228F1D1002003E00834EDE72C608F
:107A9400012070BD6388033304EB8304E5E700BF72
:107AA400FC290020436873B505460C4673B3254A88
:107AB400D1688B422AD31269934227D813F0030268
:107AC40024D121490089098988421FD128689968ED
:107AD40088421BD11D494868834203D900F5805070
:107AE40083420ED38A6993420DD902F580529342A0
:107AF40009D2012323800020B0FA80F0400902B0AB
:107B040070BD1346F6E748F20960F5E700232380C9
:107B14001E462388012B01D90020F0E7019601A914
:107B24002088FFF793FF18B9238801332380F0E7F7
:107B3400019B2A6899689142F1D16B60024B1B89C1
:107B44002B81DCE750220020E0290020FC290020C2
:107B54002DE9F8431C46204B1B7806460F46154674
:107B6400002B32D0002A33D0002C31D0DFF87080C3
:107B74004FF01409A388012B02D948F209601AE0D6
:107B840009FB03F318F80330BBB1A3880133A380C6
:107B9400F0E723681EB19988328891420DD11FB154
:107BA40019883A88914208D19A68C5E900230B4B99
:107BB4001B892B810020BDE8F8832146A088FFF7AC
:107BC40045FF0028E5D12060DFE748F20160F2E7D5
:107BD40048F20460EFE700BFD8290020E029002024
:107BE400FC29002008B5074B191D5888FFF72EFF04
:107BF40018B1BDE80840FFF7B3BEBDE80840FFF781
:107C04004FBE00BFE02900202DE9F04FA34FDFF85D
:107C1400B09289B00646B8463B6823B94946A048A5
:107C240000F0EBFD3860D8F8005029784B1E052B86
:107C340000F21681DFE813F00600780078000A01EC
:107C44000A0165012EB1974B00225A604FF4064495
:107C540025E02B79032B1DD8DFE803F01502434EF2
:107C640091490B78022B084632D00B7D022B4FF042
:107C740001032FD114225343C2180020C854506862
:107C8400FFF742FE03E001232B71FFF729FE0028D2
:107C940000F0D680834B00225A6048F20D6414220F
:107CA400002103A808F06EFE41F61D539C4208BF54
:107CB4000024D8F8003004941A78023A042A00F216
:107CC400D981DFE812F0BA01C601E901F101F80136
:107CD4000023CFE7734A13700023536041F61D5409
:107CE400DDE772497248002302222B718A80012247
:107CF400096801F05FF9CAE76C4C00262E71206810
:107D0400694DFFF701FE6B4BD4F800C05A88142369
:107D14005343EA18EE5451682160A188C2F804C0A4
:107D240011810222A280B2E7B5F814A0AA7DDFF87F
:107D340078B1AEB1022AEB8806D9142101FB0AB14D
:107D4400DA1C088902440A81142202FB0ABAC3F528
:107D54007F43BAF80A20FD331344AAF80A3075E7C2
:107D6400142303FB0AB318895C6804EB8004062A15
:107D740005D8DFE802F0274E36441D5A680048F261
:107D84000E64AA7DEB88022A06D9142101FB0AB1EC
:107D9400DA1C088902440A81142202FB0ABAC3F5D8
:107DA4007F43BAF80A20FD331344AAF80A3076E771
:107DB4004148424900234360AB690360FFF772FE08
:107DC40000285CD00223AB75002300930423EA1837
:107DD4002146374801F058F8002831D048F20D64A4
:107DE400CFE72B69002B0CBF01230323AB750023C2
:107DF400009305F10C02042304F10801E9E70123CF
:107E0400AB750022EB8800929B002A6904F10C01F7
:107E1400DFE7032914BF06230523AB750023009372
:107E2400042305F10802E118D3E70623AB75234BBD
:107E34001988214B5868FFF777FD04460028A0D124
:107E440009B0BDE8F08F41F61D549AE7002E7FF487
:107E5400FDAE2B79012B35D005D3022B3FF43EAF79
:107E640048F20E641BE702232B710DF10A01EB6843
:107E7400039303A8CDE90466FFF714FE10B948F292
:107E840009640CE70498BDF80A108388EB80038822
:107E94002B81FFF749FD044629E000BFF8290020A3
:107EA400B02A0020D8290020FC290020C42A002060
:107EB40050220020E0290020BC290020D02A0020E4
:107EC400F0290020DFF80CA203AA53463146A81D6E
:107ED400FFF73EFE044670B9BAF804100498FFF7A1
:107EE40023FD044648F209639C423FF4F7AE002C9C
:107EF4007FF4D5AEA4E708223146504608F042FD8F
:107F0400F0E7002E7FF4A2AE6D4B1A7BB2B11E7364
:107F14001A78013A062AA3D801A151F822F000BF29
:107F2400CB7F0200F17F02000F8002001580020067
:107F3400657E02001B800200318002001A78072A45
:107F4400E6D801A151F822F06D7F0200157F0200EE
:107F5400157F0200937F0200A77F0200C77F020003
:107F6400C77F02008F7F02001A89564901321A81A5
:107F740000225A801A730A78B2FA82F252099A726B
:107F84000A7DB2FA82F25209DA72012207E04E49FE
:107F940058688A884088033202448A8002221A7010
:107FA400B6E7484C5A884849142505FB024208683C
:107FB400546850608888108102228A800C600622EE
:107FC400EDE70722EBE79A7A32B9DA7A8AB9002226
:107FD4001A705A805A6081E63A4900229A72CA6835
:107FE400002AF2D1097C0029EFD05A80FFF7FAFD6C
:107FF40051E70022DA72334A116A0029E7D192F874
:108004002420002AE3D00122EFE7FFF7A9FC42E78E
:10801400FFF746FC3FE706221A702A4A5B881421C0
:1080240001FB03235868FFF76FFC34E707221A703B
:1080340000225A60FFF754FC2DE701228DF80C2032
:108044001A89ADF818209A88DB68ADF81A200593D0
:1080540010E002228DF80C201A89ADF818209A88B5
:10806400ADF81A20DA689B7D05929A1F534253415A
:108074008DF81C3003A8FFF7D3FB002649461348AC
:10808400C8F8006000F0E4FB0121114800F093FC03
:1080940000287FF4C1ADD3E603228DF80C20DA88E2
:1080A400ADF818201A89CFE70422DB888DF80C205C
:1080B400ADF81830DEE705238DF80C30DAE700BFA1
:1080C400E0290020FC290020C42A0020B02A002036
:1080D400C02A0020D42A00204068FFF795BD000084
:1080E40008B50121044800F050FC18B9BDE8084067
:1080F400FFF78ABD08BD00BFC02A00202DE9F34167
:108104009846374B1B7806460D46002B5CD0002959
:108114005DD009884FF6FF7399425BD06B88002BC2
:1081240058D06B689B0758D14AB92F890DF10201C9
:108134003846FFF785FB30B102B0BDE8F081138803
:108144005788ADF8023001A8FFF726FC044660B951
:10815400BDF80230234A142101FB03235889033854
:10816400C01B588148F20760E6E700238375BDF819
:10817400023083826B68036180F8008001211A4811
:1081840000F00EFC2B882381B8F1030F6B88A380C9
:1081940004BF0423A3754FF0000508BF3368E060F3
:1081A40008BFA361E780658101A9104800F015FBB1
:1081B40036B1E36833600E4B75601B89B572338149
:1081C400FFF78EFF0020B7E748F20160B4E748F2FA
:1081D4000460B1E748F20360AEE748F20260ABE73F
:1081E400D8290020FC290020F4290020B02A0020EE
:1081F400E029002008B5084B1A68042A09D0196838
:10820400064A42F821000121184600F0C9FB00206B
:1082140008BD48F20B60FBE7CC2A0020C8290020E7
:108224002DE9F04F89B01422002103A808F0AAFB1D
:10823400824A137803F0FF01009191463BB103A8F1
:10824400FFF7EEFA0026304609B0BDE8F08F101DA6
:1082540000F0BCFB05460028F4D140F6F8734FF05B
:1082640080521B68DFF800A25C1C04BF744B1B68BF
:1082740011695269581C08BF02FB01F3CAF8103097
:108284000022A3F540536F49CAF80C30504600F061
:10829400C7FD06460028D6D11C238C226A496B48A8
:1082A40000F03CFA3746B0464FF0030B3446CDF8A5
:1082B40004A0019BD86858F8002018EB000036D0C1
:1082C400634B9A4240F0B8804168624B994215D0A2
:1082D400013399422BD1009BDFF884A1002B6ED18E
:1082E40000225D49CAF80000FFF77AFBBAF80420BF
:1082F400022A14BF08220422174340E057494FF0D2
:10830400140C0CFB04FC01EB0C024FF0000E01F802
:108314000CE050600CF110020CF1080C0A446144AA
:10832400FFF75EFB47F002070134A4B227E0531CB9
:1083340002D0474B9A4234D1021D00F5805C11688B
:1083440001312ED104329445F9D1454A116829B935
:10835400022101231060918000930EE014226243F5
:108364003E4B4FF0020E991803F802E03D4A486074
:1083740054800134A1F808E0A4B247F0010708F5DD
:108384008058B8F5405F94D1BBF1010F88BF3D46DA
:10839400EDB2022D02D0062D23D065BB48F20A6649
:1083A40051E72E491422624301EB020C0BF1FF3317
:1083B400CCF8040003201FFA83FB8854B4E7274B4E
:1083C4001422624399184FF0020C03F802C0DAF841
:1083D40000204A60234AA1F808C054800134A4B2A2
:1083E4007EE7012389F8003003A80023C9F804308C
:1083F400FFF716FA27E702A8FFF7CEFAC8B1012360
:10840400013D03700A2D09D8DFE805F006080608C7
:10841400070807080F110F000023037102A90B4876
:1084240000F0DBF9FFF75CFE0DE70323F5E7022319
:10843400F3E748F2076606E701327CE7D829002013
:1084440014100010FC0F0300242A0020B02A00207E
:10845400DEC0ADDEFE011EF1C82A0020FC2900208A
:10846400C42A0020E02900205022002073B50D46C4
:108474000446C8B1C1B10DF10601FFF713FBB0B159
:108484000C4BBDF806006668142202FB0030012183
:108494000C3000F085FA63682E600C336B600123A6
:1084A400A372002002B070BD48F20460FAE748F2FB
:1084B4000960F7E7FC29002013B50446A8B10DF1C3
:1084C4000601FFF7EFFA98B10C4ABDF80630142103
:1084D40001FB0323DA6872B1A27A62B1DA68002080
:1084E400013ADA60A07202B010BD48F20460FAE703
:1084F40048F20960F7E748F20560F4E7FC29002038
:1085040002230022FFF7FABD18B103230022FFF76C
:10851400F5BD48F204607047114B1B7813B504464F
:10852400ABB14FF6FF73984214D001A8FFF734FAA9
:1085340098B10523037001230371C48001A909487C
:1085440000F04BF9FFF7CCFD002002B010BD48F25B
:108554000160FAE748F20360F7E748F20760F4E7DE
:10856400D8290020B02A00200F4B1B7807B5A3B1EF
:1085740001A8FFF711FA98B10623037001A90B486B
:1085840000F02BF90A4B1A780AB101221A73FFF78B
:10859400A7FD002003B05DF804FB48F20160F9E791
:1085A40048F20760F6E700BFD8290020B02A00206F
:1085B400E029002007B5ADF8060002A820F8041D44
:1085C40001460DF10600FFF7C3FA03B05DF804FBA2
:1085D40013B502AC134624F8020D0A4600202146C6
:1085E400FFF7B6FA02B010BD13B502AC134624F877
:1085F400020D0A4620460021FFF7AAFA02B010BD78
:1086040020B119B103680B600020704748F2046080
:10861400704700003E4B1B782DE9F74F0446002BB2
:108624006FD0002870D01222002108F0ABF9394E27
:1086340003232380384B0027B1464FF014084FF032
:10864400010A7589328971682A4492B251B1086865
:10865400984207D1486800F16E6000F5FF3002309F
:10866400012802D920880138208008FB0790B4F83B
:1086740002C0C06860446080208905446089258107
:1086840010446081C2F58062A08992B2904238BFE2
:10869400A28101F1080501F5805BAB4518D9296871
:1086A400013115D0594628460193FFF783F9012873
:1086B400019B15D021D30228EFD1E18884F810A0C2
:1086C4000131E180ABEB0501E58905EBA105E5810D
:1086D40014361FB1002003B0BDE8F08F0127B0E7C6
:1086E400E1880131E180E189688803310144E18155
:1086F4006988033105EB8105CFE7A1880131A180A9
:10870400F6E748F20160E6E748F20460E3E700BFF9
:10871400D8290020FC290020DEC0ADDE10B561B1EF
:10872400B2FBF3F403FB1424A4B244B9C0E900146B
:1087340084608281C381204610BD0E20FCE709209D
:10874400FAE782B050E8022FC188B2EB324F4FF003
:10875400000317BF92B241EA014142EA014104E039
:108764004268B2EB324F08BF012340E80212002AEC
:10877400E8D18DF807309DF80730002B0CBF11208D
:10878400002002B0704737B550E8013F9DB2C4895C
:1087940025448489A54228BF2D1B0489A54202BF14
:1087A400BFF32F8F002207E0C5EA030540E8015418
:1087B400002CE9D14FF001028DF803200193019BB5
:1087C4009DF803200B6002F0FF0322B10B880068C0
:1087D400184403B030BD1846FBE70A884B889A4218
:1087E40009D150E8012FC2EA024240E80123002BDC
:1087F400F7D1012070470020704737B550E8023F99
:108804001FFAA3F5C488A54202BFBFF32F8F00222D
:108814000DE0C48925448489A54228BF2D1BC3EAE1
:10882400054540E80254002CE8D14FF001028DF8D0
:1088340003200193019B9DF803200B6002F0FF03CA
:1088440022B14B880068184403B030BD1846FBE7DA
:108854000A884B889A4209D150E8022FC2EA224280
:1088640040E80223002BF7D1012070470020704715
:1088740001F01F024B090121914000EB830000F03D
:1088840063B84B0910B501F01F040121A14000EBAE
:10889400830000F04EF8E04000F0010010BD01F04C
:1088A4001F0301229A404B0900EB8300D14300F0DF
:1088B40061B84B0901F01F0150F82300C84000F0D3
:1088C400010070472DE9F0474E1E760980460F4699
:1088D4000136002558F8254008EB850AE44394FA4C
:1088E400A4F4B4FA84F44FEA4519202C06D10135D6
:1088F400AE42EFD83C462046BDE8F0874C44A74240
:10890400F5D921464046FFF7BCFF0028F3D0DAF83A
:108914000040E44394FAA4F4B4FA84F4E5E750E89C
:10892400002F0B4640E8003C9CF0000FF7D11046A6
:10893400704750E8002F42EA010340E8003C9CF0F5
:10894400000FF6D11046704750E8003F43EA010299
:1089540040E8002C9CF0000FF6D11046704750E818
:10896400002F02EA010340E8003C9CF0000FF6D11E
:108974001046704750E8003F03EA010240E8002C2B
:108984009CF0000FF6D11046704750E8002F02EB20
:10899400010340E8003C9CF0000FF6D110467047FC
:1089A40050E8003F03EB010240E8002C9CF0000F6C
:1089B400F6D11046704750E8003FA3EB010240E8AF
:1089C400002C9CF0000FF6D1104670470121FFF7F0
:1089D400B0BF0121FFF7B8BF0021FFF7C0BF10B53A
:1089E40090B1D0E9012301689B1ADBB20A60013B14
:1089F400DBB2FF2B026802D10020107110BD116898
:108A04004C1C14600B70F2E70E20F7E737B50546EF
:108A140002A8002400F8014DFEF78AFD2A686B685D
:108A2400116899420ED9481E106011F8014CEB6888
:108A3400298A01FB0434AB6811791B1ADBB2994211
:108A440038BF13719DF80700FEF796FD204603B06A
:108A540030BD37B5054602A8002300F8013D0C4699
:108A6400FEF766FD2A681368591C1160E968641AE8
:108A7400298AB4FBF1F41C709DF80700FEF77CFD15
:108A840003B030BD826810B504462AB14369016859
:108A9400006998470023A36010BD0EB403B5039981
:108AA40029B102AA04AB42F8043D00F073F802B005
:108AB4005DF804EB03B070470A2938B504460D4647
:108AC40002D10D21FFF7F8FFA3682268591CA160A9
:108AD400D554D4E901329A4204D32046BDE8384043
:108AE400FFF7D0BF38BD00002DE9F84F9946DDE906
:108AF4000A431746824688460A460126BA420FD2DE
:108B04004E4538BF4E4613F0010B01D164B9002421
:108B14000125B9F1010F1AD909F1FF397D43F8E7AD
:108B2400B2FBF7F20136E9E79B070ED5B9F1000F66
:108B34000CBF30252025A642EAD2013C29465046E6
:108B4400FFF7BAFF002CF6D1E1E72025F3E7B8FBE5
:108B5400F5F39F42E2D9DFF83890B8FBF5F35046BD
:108B640019F8031005FB1388FFF7A6FFB5FBF7F50B
:108B7400002DF2D1BBF1000F02D00CB1A64201D3FB
:108B8400BDE8F88F20215046013CFFF795FFF4E73C
:108B9400100E03002DE9F74F054690460E460029B6
:108BA40000F03A8116F8011B002958D0252940F01D
:108BB400D180002702E047F001071646324612F83A
:108BC400013B2D2BF7D0302B04D02B2B05D147F0B4
:108BD4000407F2E747F00207EFE700242A2B06F127
:108BE40001021BD1D8F80030191D1B68C8F8001009
:108BF4001C44164633782E2B1CD101364FF0000A44
:108C0400314611F8012BA2F13000092814D80A23A7
:108C140003FB0A23A3F1300A0E46F1E712F8013CE4
:108C2400A3F130010929E5D80A2101FB0434303CC1
:108C34001646D3E74FF0000A324612F8011B01F042
:108C4400FB0068281646F8D0692916D054D858294C
:108C540070D00ED825297DD03378002BA2D12B7B60
:108C6400002B00F0D980284603B0BDE8F04FFFF791
:108C740009BF632968D06429EED1D8F80020D2F85E
:108C84000090111D89EAE972C8F80010A2EBE9729C
:108C94004FF0010B092A61DCD34538BFD3462CB110
:108CA400B9F1000F01DB790700D5013CBA0702D501
:108CB400BAF1000F04D0FB0702D4002C54D10024D5
:108CC400B9F1000F58DAC9F100092D212846FFF740
:108CD400F3FE07F00302022A05D1BAF1000F02D114
:108CE400002C4DD10024CDE9004753460A224946C1
:108CF4002846FFF7F9FEAFE7732954D016D8702938
:108D0400AAD1D8F800301A1DC8F80020302128460E
:108D14001C68FFF7D1FE78212846FFF7CDFE00221C
:108D24000823CDE9003221461022E1E775292FD02E
:108D3400782991D1D8F800100A1DC8F80020CDE98F
:108D44000047534610222CE0D8F800301A1D197839
:108D5400C8F800202846FFF7AFFE7DE70A230BF191
:108D6400010B92FBF3F295E7A345A9D220212846F3
:108D7400013CFFF7A1FEA0E77807AAD52B21A5E7C0
:108D8400A345B0D230212846013CFFF795FEA7E762
:108D9400D8F80010CDE900470A1DC8F80020534652
:108DA4000A220968A4E7D8F800301A1DC8F8002080
:108DB400F907D3F8009012D54F46A7EB090B17F823
:108DC400011B41B9A345BFF447AF20212846013C0C
:108DD400FFF772FEF6E72846FFF76EFEEDE7B9F1FE
:108DE400000F17D0484607F022FE0746BC4200D9C0
:108DF40054B909F1FF3919F8011F00293FF42CAFC8
:108E04002846FFF759FEF6E720212846013CFFF7E4
:108E140053FEEBE74F46E9E703B0BDE8F08F0000EF
:108E240007B50B4688B9124B1248134AC01A0E23D1
:108E3400C0080093114B0004114940F00100FDF7F4
:108E440095FE0E2003B05DF804FB4BB9084B0948AE
:108E54000C4AC01AC0080E2300930004074BEBE72A
:108E640003601B68114603B05DF804EB184700BFAC
:108E7400200B0300780B0300CD0E0300200E03002B
:108E8400D20E0300490F03002DE9F34188B93D4B8D
:108E94003D483E4AC01AC0080E243D4B00940004CD
:108EA4003C4940F00100FDF761FE204602B0BDE8F8
:108EB400F0814AB9334B3448374AC01AC0080E24EB
:108EC40000040094324BEBE7D0F800C0BCF1000F73
:108ED40009D12C4B2C48314AC01AC008082400047C
:108EE40000942B4BDCE74BB9264B27482C4AC01A7D
:108EF400C008092400040094254BD1E74768D7F83B
:108F04000480B3FBF8F708FB17374FB11D4B1E481D
:108F1400244AC01AC0080924000400941C4BBFE76B
:108F24008F0709D0174B18481F4AC01AC0081024CD
:108F340000040094164BB3E712F0030F09D0114B51
:108F440011481A4AC01AC008102400040094104B97
:108F5400A6E7C768B9420BD34C1E05691C44AC4252
:108F640006D8DCF80C40A44602B0BDE8F0416047E6
:108F7400044B05480E4AC01AC0081024000400948B
:108F8400034B8DE7200B0300780B0300CD0E030089
:108F9400320E0300D20E03004F0F0300430F0300F1
:108FA400020F0300550F03007F0F0300970F030008
:108FB400BA0F0300F7B580B92A4B2B482B4AC01AC5
:108FC400C0080E242A4B009400042A4940F00100F2
:108FD400FDF7CCFD204603B0F0BDD0F800C0BCF1D5
:108FE400000F09D11F4B2048234AC01AC008082487
:108FF400000400941E4BE8E74AB91A4B1A481F4A6A
:10900400C01AC008092400040094194BDDE747681E
:10901400D7F800E00EF1FF370F4209D0114B124888
:10902400174AC01AC008102400040094104BCCE75F
:10903400C768B9420CD34C1E05690EFB0244AC420E
:1090440006D8DCF81040A44603B0BDE8F040604701
:10905400044B05480B4AC01AC008102400040094AD
:10906400034BB2E7200B0300780B0300CD0E030083
:10907400450E0300D20E0300430F0300020F03004A
:10908400580E03007E0E030029DF704728DF704767
:1090940070B503689D6886B004460E466DB114220F
:1090A4000021684607F06EFCA368059323790196B6
:1090B4002BB1012B0DD06846A84706B070BD012323
:1090C4008DF8003023690293E36803936369049382
:1090D400F1E702238DF80030E3681B030293F5E700
:1090E4000846704700207047024B187A003018BFBA
:1090F40001207047782B0020034B187A0122B0FA24
:1091040080F05A7440097047782B002008B5104647
:109114001A4607F00EFC002008BD000008B5142212
:109124000021044807F02EFC0348FFF70AFB002047
:1091340008BD00BF782B0020682B002010B5094C17
:10914400094B43602046FFF741FC40B906F0CAFFD3
:109154001C2320748C2205490548FFF7DFFA002000
:1091640010BD00BF782B0020F00F0300DC2A002084
:10917400682B002070B5244D244E2B7A2C463BB925
:1091840023492448FFF739FB306008B9686070BD93
:109194000223237233681A7972B1012A24D0184643
:1091A4000321FFF775FF00232372636018491948F0
:1091B400BDE87040FFF74CBBD3E90520121AB2F5A5
:1091C400805F28BF4FF48052D3E903159208012A27
:1091D400014438BF01222844FFF756FF50B111283B
:1091E400DDD101232372D2E7D3E903021044FFF750
:1091F4004DFFF3E7237C002BC9D10146BDE8704045
:10920400022000F009B800BF782B0020902B00202A
:109214008C2B0020682B002038B5831E012B45D8E9
:10922400234C237A002B41D0022B09D1032830D0C0
:10923400204B1B680022E2601A793AB1012A22D03D
:10924400637C7BBBBDE83840FFF794BFD3E90512CC
:109254008D1AB5F5805F94BF521902F580529A6158
:109264009142EDD102284FF0000308BF1946237242
:10927400104B18BF0D211868FFF70AFF0E490F485D
:10928400FFF7E6FADCE71A6901321A615B699A4270
:10929400E7E7E3680133082B01D8E360D0E7002354
:1092A400E360DFE7BDE8384006F00CBF38BD00BF1F
:1092B400782B0020902B00208C2B0020682B002082
:1092C40000F0FD03012B08D1044B00225A74421E06
:1092D400504250411874FFF74DBF7047782B00205F
:1092E40010B5064C201DFFF771FB28B9637C1BB930
:1092F400BDE81040FFF73EBF10BD00BF782B002033
:109304002DE9F34180460D460F4801A916461F4634
:10931400FFF739FA0446A8B11C22002107F032FBFA
:109324002D0B0123237101A9C4F80080A760E56017
:1093340066610548FFF751FAFFF7D2FF002002B03B
:10934400BDE8F0810420FAE7682B00202DE9F743FB
:1093540081468846104801A917461E46FFF713FAAE
:109364000446B0B11C22002107F00CFB00250A9B27
:10937400A36001A92571C4F80090C4E9037866616B
:109384000548FFF72AFAFFF7ABFF284603B0BDE80C
:10939400F0830420FAE700BF682B00202DE9F04792
:1093A400B0F806904479D2F800A09DF8208009FB1B
:1093B40004F4043C06460AEB0300A0420F4688BFAF
:1093C400A4EB030A191DC2F800A0B1FBF9F509FBCF
:1093D40015114DB9A9EB0104544528BF5446BAF1FF
:1093E400000F04D1BDE8F0873668013DF1E7043190
:1093F4007B1970182246B8F1000F0ED001461846AA
:10940400AAEB040A07F095FAD145254436684C4680
:109414004FF0000128BF5446E1E71946F0E7FFF793
:10942400DEBAF8B546790146721E0546002393421A
:109434002D6803D30024A64202D8F8BD0133F6E711
:109444000F682846FFF705FB01343946F3E72DE999
:10945400F843068ACD1C0746FFF7D8FA043E354484
:109464000446B5FBF6F5F0B14FF48073EDB283809A
:10947400C680013D076081464FF00008A84512D21E
:109484003846FFF7C3FA064648B16379013363717E
:1094940008F10108C9F8000007608146EEE720469C
:1094A400FFF7BFFF34462046BDE8F88301210430AE
:1094B400FFF776BA10B5012104460430FFF77BFAB2
:1094C40010F0FF0F04D12046BDE81040FFF7A9BFFC
:1094D40010BD1FB504AC44F8042D002200922246AE
:1094E400FFF75CFF04B010BD1FB504AC44F8042DB5
:1094F400012200922246FFF751FF04B010BD41DF64
:1095040070470000064B10B500241C70054B1C600E
:10951400BFF35F8F0449054800F039F8204610BDB9
:109524009C2B0020A02B00201C100300942B002057
:1095340007B502A8002300F8013DFDF7F9FFF1EE9D
:10954400103A23F09F03E1EE103ABFF35F8F0A4B0A
:109554004022C3F884219DF80700FEF70DF806F0B9
:10956400C1FD20B1FFF7CBFF03B05DF804FB20BFC2
:1095740040BF20BFF8E700BF00E100E0836800229D
:109584005A609A60C3E90422DA601A6070470B6873
:109594004A684360934208BF0023016008BF4360E8
:1095A4007047436843B10268916852680B44934220
:1095B400436004BF00234360704770B544680646A7
:1095C4000D46206818B1B3682946984718B923682E
:1095D4002B60256070BD2468F3E74368186808B100
:1095E40002681A60704743681868704743681868CF
:1095F40000B970478842026802D11A60012070479E
:1096040003461046F4E700000D4930B5A1F5947205
:109614000225914201D800200EE08B1ADB1093FB47
:10962400F5F302EBC30452F83330834205D802D277
:1096340004F10802EDE7606830BD2146E9E700BFA8
:109644007811030008B5FFF7DFFF024B002808BFBD
:10965400184608BD3A1003000C4B1B78062B10D19A
:109664000B4B1B681A070CD10A4B186800F0F00367
:10967400302B08D000F0E000A0F1400358425841DC
:109684007047002070470120704700BFE00F00F0D2
:10969400E40F00F0E80F00F0094B1B78062B0CD107
:1096A400084B1B681A0708D1074B186800F0F00034
:1096B400A0F130035842584170470020704700BF62
:1096C400E00F00F0E40F00F0E80F00F008B5FFF73A
:1096D400C3FF28B17D4B7E4A1B68C3F30423136088
:1096E400FFF7DAFF10B17B4B7B4A1A60FFF7B4FF38
:1096F40028B17A4B7A4A1B68C3F342331360FFF7ED
:10970400CBFF20B1774AD36823F08073D360FFF78F
:10971400A3FF40B14FF080430022C3F80C21C3F8EB
:109724001021C3F83825FFF7B7FF10B16E4B0322A1
:109734001A60FFF7B1FF40B16C4B05221A60012299
:109744009A6700229A603F225A60694B1B78062B65
:1097540050D1684B1B6819074CD1674B1B6803F049
:10976400F003502B46D14FF08052644BD2F80414CE
:10977400C3F82015D2F80814C3F82415D2F80C1431
:10978400C3F82815D2F81014C3F82C15D2F8141401
:10979400C3F83015D2F81814C3F83415D2F81C14D1
:1097A400C3F84015D2F82014C3F84415D2F8241491
:1097B400C3F84815D2F82814C3F84C15D2F82C1461
:1097C400C3F85015D2F83014C3F85415D2F8341431
:1097D400C3F86015D2F83814C3F86415D2F83C14F1
:1097E400C3F86815D2F84014C3F86C15D2F84424B1
:1097F400C3F87025FFF730FF28B1414B414A1B687D
:1098040003F04F031360FFF727FF48B14FF0804385
:10981400D3F80024D20744BF6FF00102C3F8002438
:10982400394B1B68062B08D1384B1B68062B01BF2C
:10983400374A136843F480631360364AD2F8883099
:1098440043F47003C2F88830BFF34F8FBFF36F8FB8
:109854004FF01023D3F80022002A03DBD3F804329C
:10986400002B2FDA2C4B0122C3F80425D3F8002453
:10987400002AFBD04FF010221521C2F80012D3F8B1
:109884000024002AFBD04FF010231522C3F8042231
:10989400214B1A46D3F800140029FBD00021C3F849
:1098A4000415D2F80034002BFBD0BFF34F8F1949B5
:1098B4001A4BCA6802F4E0621343CB60BFF34F8FC4
:1098C40000BFFDE7164B174A1A6008BD24030010B9
:1098D4004035014074C007400DF0ADBA4402001099
:1098E4003C050040F0ED00E0A005004010560040AB
:1098F400E00F00F0E40F00F0E80F00F000C00040BB
:1099040058020010E40E0040300100103401001031
:109914003C17004000ED00E000E001400400FA05BF
:10992400902200200090D003054A4FF0A043105C21
:10993400D3F8043523FA00F0C04300F00100704767
:1099440036150300044B1A5C012393404FF0A042E8
:10995400C2F80C35704700BF36150300044B1A5C7F
:10996400012393404FF0A042C2F80835704700BF6E
:109974003615030008B50020FFF7F0FF0120FFF7BC
:10998400EDFF0220FFF7EAFF0320BDE80840FFF7E0
:10999400E5BF08B50020FFF7D5FF0120FFF7D2FF90
:1099A4000220FFF7CFFF0320BDE80840FFF7CABF3E
:1099B400074A4FF0A041105CD1F8043501228240DF
:1099C40022EA03001340C1F80805C1F80C357047BA
:1099D40036150300054A4FF0A043105CD3F8103548
:1099E40023FA00F0C04300F0010070473215030071
:1099F4000D2809D00E2809D00F2809D010280CBF33
:109A040003204FF0FF30704700207047012070475B
:109A140002207047014B185C704700BF32150300E9
:109A2400C20708B501460CD54FF0A0430322C3F882
:109A34004427C3F84827C3F84C27C3F85027FFF737
:109A440099FF8B070AD54FF0A0430C22C3F83427A3
:109A5400C3F83827C3F83C27C3F8402708BD0000E3
:109A640038B5084C04F108030546002818BF1C4605
:109A740023682BB11A6822605B6828469847F7E789
:109A840038BD00BFAC2B002020B9054B01225A7011
:109A9400FFF7E6BF012802D1014A9070F8E770474A
:109AA400A42B002020B9034B01225A70FFF7D8BF22
:109AB400704700BFA42B002038B50B4C237883B922
:109AC4000A486360A3602361E36000F0C7F80546B9
:109AD40006F008FB08B900F0CFF8012323702846EC
:109AE40038BD8525FBE700BFA42B00208D9A02001A
:109AF40037B502A80023094C00F8013DFDF718FD15
:109B0400E368013BE360E56815B900F0C7F8A570A8
:109B14009DF80700FDF730FD03B030BDA42B0020F5
:109B2400012813B509D003D303281BD002B010BDFC
:109B34000F4B0122C3F88020F8E702A800230D4C44
:109B440000F8013DFDF7F4FC23780BB9FFF7B4FFEF
:109B5400E3689DF807000133E3600123A370FDF778
:109B64000BFDE3E700F088F8FFF7C2FFDEE700BF74
:109B740000E100E0A42B00201FB503788DF800302D
:109B84004368019383688DF80830C3680393054ADA
:109B9400054B684653F8213052F82110984705B018
:109BA4005DF804FBB82B0020BC2B00201FB5037804
:109BB4008DF800304368019383688DF80830C368DA
:109BC4000393054A054B684653F8213052F8211097
:109BD400984705B05DF804FBB82B0020BC2B00208F
:109BE400F0B5194B067891F81DE043F82620174B81
:109BF40094460A6943F82620154B03F806E00C4600
:109C040007460FCC89B06D460FC594E80F0085E870
:109C14000F000496BEF1000F0AD0BCF1000F0D4AEC
:109C2400694608BF0022381D00F088FD09B0F0BD68
:109C3400BCF1000F084A694608BF002207F10C0076
:109C440000F06AFBF2E700BFBC2B0020B82B002019
:109C5400C02B00207D9B0200B19B0200054A1379B2
:109C64002BB901211060117153711846704785207A
:109C7400704700BFC42B0020074B1A68D2075FBF90
:109C8400C02283F8002301221A604FF0804301228E
:109C9400C3F81825704700BF00E100E0044B01221F
:109CA4001A604FF08042D2F81834DB03FBD47047BB
:109CB4000C000040154B07B51A687AB100221A60EF
:109CC4001B680093009B4FF080430122C3F80823D4
:109CD4000F4B587910B95A711B6898470D4B1A6885
:109CE40082B100221A601B680193019B4FF08043EC
:109CF4000222C3F80823064B1B68012003B05DF859
:109D040004EB184703B05DF804FB00BF00010040FA
:109D1400C42B00200401004000F1804000F5C04045
:109D2400002382B0036003680193019B02B0704773
:109D3400800000F1A040D0F8003723F44033C0F88D
:109D44000037D0F8003743EA0141C0F800177047E4
:109D5400054B4FF0FF32072843F8202084BF1B181F
:109D640083F84820704700BFCC2B002010B5164C58
:109D740094F8583033BBFF21E2180133202B82F8CA
:109D84003010F9D10021C8B2FFF7E2FF01310C29EC
:109D9400F9D1042200210D4806F0F4FD0C4BC02239
:109DA40083F8062340221A604FF4BE70FFF7B4FF15
:109DB400084B4FF00042C3F80423012384F85830C1
:109DC400002010BD0820FCE7CC2B0020202C002014
:109DD40000E100E000600040034B93F858000030BD
:109DE40018BF0120704700BFCC2B0020F0B5394DBF
:109DF4002C18944694F93040002C68DA8E78C6F317
:109E04004006002E15BF0023082308270C27BB4259
:109E140001D10420F0BD55F8232001324FEA830418
:109E240041D12F1845F823C087F8303016B9EA1805
:109E340082F848008A78560716D4D70735D58200A9
:109E440002F1A042D2F8006726F00206C2F80067C9
:109E5400214FC60800F0070C012202FA0CF217F891
:109E640006C042EA0C02BA558A780E7812F0020251
:109E740024D004F1804303F5C0430002D3F8102535
:109E840022F4473222F44072C3F810253604D3F882
:109E9400102500F4F85006F4403630431043C3F85C
:109EA40010050020B6E70133B1E74E7800F5E07203
:109EB4004FF0A047B60047F82260C9E7083B2B449F
:109EC40093F8500040EA861683F85060E9E70820CA
:109ED400A0E700BFCC2B0020202C002038B5204C5C
:109EE400251895F93020072A18DD224492F84830C5
:109EF4009B09032B0DD14FF0A043D3F81035C34079
:109F040013F0010F0CBF02210321BDE83840FFF715
:109F14000FBF012B14BF03210221F6E7D3B2072B95
:109F24001CD8930003F1804303F5C043D3F8100514
:109F340040F00100C3F8100502F14000800080B237
:109F4400FFF7EAFE51B195F9303054F823302BB1C4
:109F5400012303FA02F2034BC3F8042338BD00BF04
:109F6400CC2B0020006000404FF0A043D3F8103504
:109F740023FA00F000F00100704700002DE9FF47CC
:109F84000024584A584E594D019401211368A2F5F2
:109F9400C040012B80B206D1D6F804330B4202D064
:109FA400FFF7BAFE0C430432AA424FEA4101EDD155
:109FB4004F4B1B68012B0AD14FF4BE70FFF7ACFE68
:109FC4004FF0A04344F00044D3F81035019314F04B
:109FD400FF0F1AD0474F00250126344210D0AB00A2
:109FE40003F1804303F5C043D3F81005D3F81015EB
:109FF40057F82530C0F30420C1F3014103B1984759
:10A004000135082D4FEA4606E7D1002C66DA002216
:10A014004FF0FF33CDE90223DFF8D8900127002663
:10A0240034464FF0A04809EB060393F95020531C23
:10A0340045D0D2B222F0C005E90804A8084402F0D1
:10A04400070310F804CC07FA03F31CEA030F36D015
:10A0540009EB050C92099CF930C059F82CA0BAF10F
:10A06400000F0AD1032A2AD10DF1080E1EF801C0EF
:10A074004CEA030C0EF801C001E0032AF4D005F504
:10A08400E07110F80C0C58F821101842C1F301418A
:10A0940005D0022913D1032A0BD1114604E0032968
:10A0A4000DD1032A05D102212846FFF741FE0134D0
:10A0B400E4B2BAF1000F02D011462846D047013667
:10A0C400042EB0D154B14FF0A043019AD3F8103507
:10A0D400934203D00193029B0393A0E704B0BDE82D
:10A0E400F08700BF00610040006000402061004034
:10A0F4007C610040CC2B0020014B1B68184700BF3B
:10A10400282C00200D4B984237B50D4610D102A8DB
:10A11400002300F8013DFDF70BFA094B1C7914B933
:10A1240001221D601A719DF80700FDF725FA14B984
:10A13400002003B030BD1120FBE700BF0020004029
:10A14400282C0020034B984201BF034B00221A60C5
:10A154001A71704700200040282C0020002343502F
:10A1640082B043580193019B02B070470A4610B570
:10A174004FF48E71FFF7F2FF136A9168C95C136A9A
:10A1840001331362C0F81C1510BD8B690A4610B563
:10A194004FF4847123B9FFF7E1FFD0F8183510BDEF
:10A1A400FFF7DCFF536AD168D0F81805C854536A26
:10A1B40001335362F3E700001FB501238DF800302B
:10A1C400044BCDE90110D3E900126846904705B06D
:10A1D4005DF804FB302C002030B54D4AD2F804332E
:10A1E40013F4007F85B015464FD0D2F82431002BEC
:10A1F4004BD04FF492711046FFF7B0FF4FF4017348
:10A20400C2F80833434B93F8291009B9012151606E
:10A214003F4902228DF80020D1F88024C1F880241F
:10A2240003929A690292DA6801920022C3E9062233
:10A234006846D3E9001290473548D0F81C315BB129
:10A2440034494A690B6A9A420A464BD991F8283034
:10A25400002B47D1FFF78AFF2D4AD2F8443193B13E
:10A264004FF4A2711046FFF779FF2A4B93F8291097
:10A2740009B1012111609A692AB100229A61586AD0
:10A28400D968FFF799FF05B030BDD5F804335B07F3
:10A29400D2D5D5F80831002BCED01E4C1C4821460F
:10A2A400FFF773FF636AA2699A422346C4D1E26945
:10A2B400E1684AB12369E3600023606AA261E36153
:10A2C4006362FFF779FFB7E794F829200AB90122FE
:10A2D4006A600F4A4FF40170C2F8080300229A61C1
:10A2E400586AEEE74FF48E710948FFF737FF536958
:10A2F400002BB1D051690291002391688DF8003090
:10A30400019153616846D2E900139847A4E700BF5E
:10A3140000200040302C00202DE9F843564F0479EA
:10A3240091462C2202FB0472064692F82A200D461E
:10A33400002A40F09A8051490068FFF7E3FE804606
:10A34400002840F0958029683368481C0BD04FF0F2
:10A35400A04001228A40C0F8082501F5E0724FF0C0
:10A36400030C40F822C06868421C1FBF00F5E0726D
:10A374004FF0A04C4FF0000E4CF822E0AA6995F87B
:10A3840014C0C3F824256A7DBCF1010F4CEA020213
:10A39400C3F86C25C3F81405C3F80C151DD1AA68BD
:10A3A400511C1FBF02F5E0714FF0A0404FF0000CAC
:10A3B40040F821C0E968481C0BD04FF0A04C0120A4
:10A3C4008840CCF8080501F5E0704FF0030E4CF816
:10A3D40020E0C3F80815C3F810252C236343FA18AA
:10A3E400C2F804902A69FA50B9F1000F2AD04FF448
:10A3F4008E7130682D7FFFF7B1FE30684FF4A27183
:10A40400FFF7ACFE32681E4BC2F80433120B51B294
:10A414000029A8BF01F160404FEA4513BABF1948AB
:10A4240002F00F0500F56140DBB2B4BF435580F87C
:10A43400003302F01F02012303FA02F24909124B0E
:10A4440043F8212033680422C3F800252C2303FB9E
:10A4540004730022C3E9062283F829205A610122E9
:10A4640083F82A204046BDE8F8834FF00808F9E74E
:10A474004FF01108F6E700BF302C0020DDA10200E8
:10A484008000020014ED00E000E100E0F8B504797A
:10A4940000682D4D0023C0F800352C2303FB045322
:10A4A4005B6873B1294BC0F80833020B53B2012126
:10A4B4005B0902F01F0201FA02F22033244941F839
:10A4C4002320D0F80C65D0F81415D0F80835D0F84E
:10A4D40010254FF0FF37BE42C0F8147518BF06F5BB
:10A4E400E076C0F80C75C0F80875C0F810751EBF8A
:10A4F4004FF0A0474FF0020C47F826C04E1C1FBF78
:10A504004FF0A04601F5E071022746F82170511C76
:10A514001FBF4FF0A04102F5E072022641F822600D
:10A524005A1C1FBF03F5E0734FF0A042022142F80A
:10A534002310FFF707FE2C2303FB0454002384F8A5
:10A544002A306360F8BD00BF302C00208402020072
:10A5540000E100E02DE9F047234F06794FF02C0984
:10A5640009FB067480466569002D38D16261A160DB
:10A5740025624FF48E71006884F82850FFF7EEFDD1
:10A58400D8F80000012383602146FFF7EFFD6368DC
:10A59400A14633BBD8F80050D4F814A0236A9A45D6
:10A5A40012D8D8F80030D3F81C21002AFBD001229D
:10A5B400DA6000202C2303FB067600237361BDE8D8
:10A5C400F08794F8283043B9D5F81C31002BF8D023
:10A5D40049462846FFF7CAFDE0E70F20EAE71120C5
:10A5E400EDE72846EBE700BF302C00200023435062
:10A5F40082B043580193019B02B070471FB50123F9
:10A604008DF80030044BCDE90110D3E900126846FF
:10A61400904705B05DF804FB5C2C00207FB5454AEB
:10A62400D2F82461002E63D010464FF49271FFF7E4
:10A63400DDFF02238DF80030D2F88034C2F8803474
:10A644000393D2F83C3502933B4BDA680192002223
:10A65400C3E906226846D3E900129047354AD2F886
:10A6640044317BB14FF4A2711046FFF7BFFF324B68
:10A67400996939B10021C3E90611D968D2F83C05BA
:10A68400FFF7BCFF2B4AD2F82031B3B14FF49071DD
:10A694001046FFF7ABFF0123D360274B596961B123
:10A6A400D2F84C150291002299688DF8002001918E
:10A6B4005A616846D3E9001290471E4AD2F85831CD
:10A6C400A3B14FF4AC711046FFF790FF1A4B5969D0
:10A6D40061B1D2F84C150291002299688DF80020DE
:10A6E40001915A616846D3E90012904704B070BDE5
:10A6F400D2F81031002BB1D04FF488711046FFF717
:10A7040075FF0D4BD2F83C0599698842A6D1DC69E6
:10A71400D96864B1D2F8005225F02005C2F800527D
:10A724001A699C61DA60DE61FFF768FF96E79C6155
:10A73400FAE700BF002000405C2C00202DE9F8431C
:10A744005C4F06799146242202FB0672044692F875
:10A7540020200D46002A40F0A78057490068FFF7E3
:10A76400D1FC8046002840F0A28029682368481C58
:10A774000BD04FF0A04001228A40C0F8082501F513
:10A78400E0724FF0030C40F822C06868421C1FBFFF
:10A7940000F5E0724FF0A04C4FF0000E4CF822E0B0
:10A7A400AA6995F814C0C3F824256A7DBCF1010F89
:10A7B4004CEA0202C3F86C25C3F80C15C3F814055F
:10A7C4001DD1AA68511C1FBF02F5E0714FF0A040D3
:10A7D4004FF0000C40F821C0E968481C0BD04FF042
:10A7E400A04C01208840CCF8080501F5E0704FF03A
:10A7F400030E4CF820E0C3F80815C3F810252423F1
:10A804007343FA18C2F804902A69FA50B9F1000F98
:10A8140039D04FF4887120682D7FFFF7E7FE4FF49D
:10A8240090712068FFF7E2FE4FF492712068FFF701
:10A83400DDFE4FF4A2712068FFF7D8FE20684FF4C4
:10A84400AC71FFF7D3FE22681C4BC2F80433120B21
:10A8540051B20029A8BF01F160404FEA4513BABFC5
:10A86400174802F00F0500F56140DBB2B4BF435551
:10A8740080F8003302F01F02012303FA02F24909AF
:10A88400104B43F8212023680822C3F80025242311
:10A8940003FB06730022C3E906225A61012283F8EE
:10A8A40020204046BDE8F8834FF00808F9E74FF050
:10A8B4001108F6E75C2C002021A6020010034200D8
:10A8C40014ED00E000E100E0F8B5374D04792423ED
:10A8D40003FB045306465B68006873B1334BC0F84E
:10A8E4000833020B53B201215B0902F01F0201FA83
:10A8F40002F220332E4941F82320D0F800320122FD
:10A9040023F02003C0F800324FF4AC714260FFF72B
:10A914006DFE3068C260D0F85831002BFBD00023A4
:10A92400C0F80035D0F80C65D0F81415D0F8083507
:10A93400D0F810254FF0FF37BE42C0F80C7518BF91
:10A9440006F5E076C0F81475C0F80875C0F81075FF
:10A954001EBF4FF0A0474FF0020C47F826C04E1C14
:10A964001FBF4FF0A04601F5E071022746F82170A1
:10A97400511C1FBF4FF0A04102F5E072022641F8BE
:10A9840022605A1C1FBF03F5E0734FF0A04202215E
:10A9940042F82310FFF7D6FB242303FB04540023BF
:10A9A40084F820306360F8BD5C2C00201003420062
:10A9B40000E100E001F06043B3F1005F2DE9F041F4
:10A9C400074638D11F4B0679242505FB06359846E2
:10A9D4006C69002C31D16A61A96000684FF49071F0
:10A9E400FFF704FE4FF4AC713868FFF7FFFD3B68D6
:10A9F4006A69A968C3F84415C3F8482501229A6016
:10AA04006A68E2B9D3F82011D3F8582119B9002A99
:10AA1400F8D00F2008E0002AFBD10122DA60D3F835
:10AA24005821002AFBD00020242303FB06860023A0
:10AA34007361BDE8F0811020FBE71120F9E720469F
:10AA4400F7E700BF5C2C00201FB503788DF80030B9
:10AA540003798DF8043043798DF8053083688DF8D7
:10AA64000630C3688DF80730036902934369039382
:10AA7400054A064B684653F8213052F8211098478E
:10AA840005B05DF804FB00BF802C0020882C00205A
:10AA9400024B4FF4807043F0010318476015030024
:10AAA4002DE9F04791460778324A42F82790324A16
:10AAB40042F827304B7B80460C4663B308684968EC
:10AAC40082008B0002F1A04203F1A04340F20C6526
:10AAD400C2F800570126C3F800574FF0A04506FA04
:10AAE40000F006FA01F1C5F80805C5F8081540F2AA
:10AAF4000D61C2F80017C3F80017FFF7C9FF4FF044
:10AB0400000AD5F81025636822FA03F3DB070FD592
:10AB1400BAF1000F1FD1B9F1000F3B46174A214685
:10AB240008F1040008BF0022BDE8F04700F0F0B9C6
:10AB3400236806FA03F3C5F80C35FFF7A9FF236869
:10AB440006FA03F3C5F808350AF1010AFFF7A0FF76
:10AB5400BAF1090FD5D1636801254FF0A04605FA73
:10AB640003F3C6F80C35FFF793FF63689D40C6F8FE
:10AB74000855D0E7882C0020802C00204DAA020024
:10AB84000023435082B043580193019B02B07047A5
:10AB94004B6B8A6A934208D24A6AD25CC0F81C257D
:10ABA40001334B6301231846704791F82C301BB1D5
:10ABB4000123C3610023F6E70A6A12F0400F4FF045
:10ABC400010215BFC261426181F82D201346EAE7F4
:10ABD40091F82F20F8B504460D46002A60D1D0F82C
:10ABE40024314E6B8F6AB3B14FF49271FFF7C8FFF3
:10ABF4000123636185F82F30BE424FD1D4F804316C
:10AC0400002B4BD04FF482712046FFF7B9FF00228E
:10AC140085F82D2013E0D0F81C3193B14FF48E71D8
:10AC2400FFF7AEFFD0F824311BB14FF492712046E8
:10AC3400DCE72946FFF7ACFF02460028DCD11046CA
:10AC4400F8BDD0F80831002BD6D04FF48471FFF74B
:10AC540097FFD0F82431002BE7D16B6BA96A8B42A4
:10AC6400CAD2696AD0F81805C8546B6BA96A013353
:10AC7400481E83426B6308D1286A40061DD4022310
:10AC8400C4F8003201232362B6E78B42FAD12B6A5F
:10AC94005B06B1D5022385F82D30D0E70122CEE73B
:10ACA4004FF49271FFF76CFF4FF48E71FFF768FF5A
:10ACB4004FF48471FFF764FFA0E78B42E2D1E9E728
:10ACC40037B5344B01930D464FF482710446FFF7B8
:10ACD40057FF4FF49271FFF753FF4FF48E71FFF754
:10ACE4004FFF4FF48471FFF74BFF00236B6385F82C
:10ACF4002F30AB6A012B18D12B6A5B0615D40223C3
:10AD040095F82D20C4F80032022A4FF00103236283
:10AD140018BF23602B6893B140F28623AB60AB6805
:10AD2400C4F80433002003B030BD0123E8E729460A
:10AD34002046FFF74DFF28B1019B013B0193019B86
:10AD4400002BF4DC95F82F305BB90020019B002B1D
:10AD5400E9DC0023C4F800350523C4F800350320DA
:10AD6400E1E7D4F8C434C4F8C434002BEDD013F0B4
:10AD7400010F14BF4FF40240032048F2012213F0E4
:10AD8400020F18BF104613F0040F48F2022318BF35
:10AD94001846DBE7A086010037B5314B01930D4619
:10ADA4004FF482710446FFF7EBFE4FF49271FFF704
:10ADB400E7FE4FF48E71FFF7E3FE4FF48471FFF763
:10ADC400DFFE002395F82D20C0F800326B6385F870
:10ADD4002F3001239A420362294618BF8360FFF78C
:10ADE400D7FE2B6883B140F28623AB60AB68C4F80E
:10ADF4000433002003B030BD29462046FFF7E8FEA7
:10AE040028B1019B013B0193019B002BF4DC95F8D5
:10AE14002F305BB90020019B002BEBDC0023C4F82E
:10AE240000350523C4F800350320E3E7D4F8C4341F
:10AE3400C4F8C434002BEDD013F0010F14BF4FF449
:10AE44000240032048F2012213F0020F18BF1046FB
:10AE540013F0040F48F2022318BF1846DBE700BFC3
:10AE6400A0860100F0B5274C274887B02146FFF79C
:10AE7400AFFEA446D8B994F82F70266AE7B9237BAD
:10AE84009A1E012A18D8616AA269914214D1E26912
:10AE94006262C6F340166269A262032B84F82C60D6
:10AEA40084F82D702146184803D1FFF775FF07B0C9
:10AEB400F0BDFFF705FFFAE7144D0FCD01AC0FC449
:10AEC4002B682360DFB1104AD2F8C434C2F8C4340A
:10AED40098070CD501238DF8003000238CF830300E
:10AEE4007307E4D4DCE9003168469847DFE7590783
:10AEF40001D50223EFE7DA07EFD50323EBE78DF85B
:10AF04000070EAE7902C0020003000409C2C0020C8
:10AF14002DE9F84F0679344D4FF03C0808FB06F84C
:10AF240005EB08049B4694F82E3081460F46924662
:10AF3400002B54D12D490068FFF7E4F8002850D1C4
:10AF440039687B7B84F8383001F5E0724FF0A04318
:10AF5400A060C4F804B084F8300084F82D0084F8AC
:10AF6400310040F20C6445F808A043F822407A68A6
:10AF740002F5E07C43F82C40D9F80030C3F80815FA
:10AF8400C3F80C25BA68C3F82425BAF1000F1ED003
:10AF94001B0B59B200293A7BB4BF154C01F1604434
:10AFA400DBB2B8BF03F00F074FEA4212A8BF04F5A3
:10AFB4006144D2B2B4BFE25584F8002303F01F0306
:10AFC400012202FA03F349090A4A42F821303C23D8
:10AFD40003FB0655012385F82E30BDE8F88F0820C1
:10AFE400FBE71120F9E700BF902C002069AE0200B6
:10AFF40014ED00E000E100E0026803790521C2F8E5
:10B004000015044A3C2101FB0323022283F82E206D
:10B01400704700BF902C00202DE9F047324D90F886
:10B0240004803C2303FB08530E4693F82D30012B78
:10B03400964604D10B78012B06D1082013E0022B8D
:10B0440002D10B78012BF8D1D0F80090274BC9F826
:10B0540008333C2404FB085494F830302BB1A36823
:10B06400C9F804331120BDE8F0878EF00403C3F35C
:10B07400800384F83030C4F820E0B446BCE80F0004
:10B0840004F10C070FC7DCF800303B607368A3625F
:10B09400F36863627378C9F888353378C8EB081AA3
:10B0A400012B05EB8A0A1AD0B3B9CEF3401E3C2318
:10B0B40003FB0853514683F82CE04846FFF76CFE27
:10B0C4003C2303FB08F805EB080255F80830002B75
:10B0D400C9D182F83030C6E74FF0010EE7E7514698
:10B0E4004846FFF7EDFDEBE7902C00208642040074
:10B0F40010B586B00024CDE902349DF820308DF8D7
:10B104000510A342CDE9042401A914BF202222463C
:10B114008DF80440FFF780FF06B010BD10B586B06F
:10B124000124029300238DF80510CDE9033201A90F
:10B134001A468DF804400593FFF76EFF06B010BD64
:10B144000220FEF735BC00002DE9F04781460D468C
:10B15400FEF74EFC0328044604D8012D04D024D362
:10B16400022D2FD0BDE8F087194D47003A18A918D1
:10B17400AE5C4A7852B1DFF86880164842464FF414
:10B184008041FCF7E8F808B988F800903B192B4493
:10B194009A78114B1A55002EE4D0104B1B68002BE3
:10B1A400E0D03046BDE8F04718470A48FCF7EBF812
:10B1B400074B04EB440213449E78074B1B5DB342D8
:10B1C400D0D1E8E7024B00EB40041C446678E2E788
:10B1D400302D0020F02C0020492D0020442D00208B
:10B1E400CC2C002002210078FFF7AEBF08B5094B34
:10B1F4001B7853B10020FEF7B1FB0120FEF7AEFB34
:10B204000320BDE80840FEF7A9BBBDE80840FEF7EF
:10B21400B1BB00BFCD2C0020F8B57B4C237805468C
:10B224001BB100232370FFF7E1FF172D00F2888084
:10B23400DFE805F00C17174354657680888D888DF8
:10B24400959A9A9A9A9AC4C9D1D9E4E4FFF7CEFFA1
:10B254006E48FCF798F86E4B002204461A7020469C
:10B26400F8BD0020FEF760FBF8B10020FEF776FB86
:10B27400022D0CBF4FF4E1614FF47A61644B1D70F1
:10B284004FF400404FF47A740025E0FB01454FF47D
:10B29400FA6200232046294605F050FA00220146AE
:10B2A4005A48BDE8F840FCF756B8FEF74BFB022DB0
:10B2B4000CBFC8214FF4C871E0E70020FEF734FB4F
:10B2C40040B10020FEF74AFB4FF44871504B032273
:10B2D4001A70D5E7FEF736FBC821F7E70020FEF722
:10B2E40023FB38B10020FEF739FB4FF47A61484B59
:10B2F4000422EDE7FEF726FB4FF4C871F7E70020C0
:10B30400FEF712FB48B10020FEF728FB404B052254
:10B314001A7040F6CD410022C2E7FEF713FBF5E7B1
:10B324000020FEF745FB3A4B06221A70002240F239
:10B334006661B5E70020FEF705FB354B07221A705E
:10B3440000248CE701202070FEF732FBEEE7012099
:10B354002070FEF72DFB00224FF40051A0E7FEF70A
:10B3640018FB2B4B0C22EAE72A482B4EFCF70BF870
:10B37400D5F1110504461CD0D8B9012D13D0C8232A
:10B384005D434FF400474FF47A7000214FF4FA62A2
:10B394000023C7FB050105F0D1F9224601461D48EB
:10B3A400FBF7D9FF04460220FEF7CCFA01233370E1
:10B3B40055E70220FEF7D2FA0023F8E7FFF716FF5D
:10B3C400134B1222BBE7FFF711FF0020FEF7BAFA76
:10B3D4000F4B1322B3E7FFF709FF0120FEF7B2FA80
:10B3E4000B4B1422ABE7FFF701FF0020FEF7AAFA8C
:10B3F4000120FEF7A7FA064B1522A0E7FEF7C9FACB
:10B40400034B1D709CE700BF402D0020102D002031
:10B41400482D0020D02C0020CD2C0020044B1B688C
:10B42400DB0703D5034B1878FFF7F6BE704700BF60
:10B434003C2D0020482D0020032801D8FEF7CABA6D
:10B4440000207047044B1B6813F0010301D0FFF781
:10B45400E3BE1846704700BF3C2D002038B51C4B96
:10B4640018601C4B10F00204054619601AD01A4BE0
:10B474001A480E221A700F22DA7010229A711122C1
:10B484005A72042140F23332FBF7F2FD044648B904
:10B49400FBF746FE044628B90146114A1148FBF75A
:10B4A4004FFF0446EB0711D50120FEF7B9FA6CB93A
:10B4B40021460D4A0D48FBF743FF044630B90C4AB8
:10B4C4000C480121BDE83840FBF73ABF204638BD9F
:10B4D4003C2D0020442D0020302D00206C1503004D
:10B4E400E9B102009015030021B402009415030091
:10B4F40045B102008C150300032812D8012A0BD190
:10B50400012908D100F10E02D2B200EB40000C4B2D
:10B514001A540020704700220129F6D009D30229C9
:10B5240001D007207047064B00EB400018444270DE
:10B53400EFE7034B00EB400018448270E9E700BFDB
:10B54400302D0020032808B512D8FEF763FA8000D6
:10B5540000F1A040D0F8003723F44033C0F800379E
:10B56400D0F8003743F44033C0F80037002008BD5A
:10B574000620FCE708B5012202210020FFF7BCFFEA
:10B5840008B1072810D1072202210120FFF7B4FFD8
:10B5940008B1072808D100210A220846FFF7ACFFAA
:10B5A40010B1072808BF002008BD00000388102B35
:10B5B40010B502D0112B1ED010BD1A4C2168B1B9A0
:10B5C40001220846FFF798FF08B1072824D1072273
:10B5D40002210120FFF790FF08B107281CD10422A3
:10B5E40002210020FFF788FF08B1072814D123683F
:10B5F40001332360E0E70B4A1368013B1360002B1F
:10B60400DAD1FFF7B7FF0028D6D0074B1B68002B11
:10B61400D2D0BDE810401847034B1B68002BE6D07E
:10B624009847E4E7542D0020502D002008B5002051
:10B63400FFF788FF08B1062806D10120FFF782FF33
:10B6440010B1062808BF002008BD00000D4B10B53E
:10B6540018600C4629B10120FFF7EEFE40B1022329
:10B664002370094B1B6853B9BDE81040FFF782BF34
:10B67400FFF7E2FE08B10B23F2E72070F1E70020A8
:10B6840010BD00BF502D0020542D002076DF7047E0
:10B694007ADF70477CDF70478FDF704733DF704796
:10B6A400FBF754BD08B50020FFF7CCFE08B1FBF74B
:10B6B4004DFDFFF7BBFF08B1FBF748FDFFF7EEFFB9
:10B6C40018B1BDE80840FBF741BD08BD0388212B34
:10B6D40013B5044635D005D8102B17D0112B0AD03A
:10B6E40002B010BD3B2B01D0562BF9D11321A088F9
:10B6F400FFF7CCFF20E0174B17481849C01AC008C1
:10B70400000440F00300FBF719FAE9E7114B124873
:10B714001349C01AC008000440F00300FBF70EFAF6
:10B724000720FFF78FFE08B1FBF710FD0D4BA18832
:10B734000D48198002F0F6F90028D1D0FBF706FD78
:10B74400CEE702A9002321F8043D8088FFF7A4FF77
:10B75400F2E700BF200B0300500B03009815030011
:10B76400A615030098220020A031002008B5037814
:10B774004BB9054B3B211888FFF788FF18B1BDE88A
:10B784000840FBF7E3BC08BD98220020072808B551
:10B7940013D00A280DD0042819D10D4B1321188871
:10B7A400FFF774FF30F0080311D0BDE80840FBF741
:10B7B400CDBCBDE80840FFF775BF054B1A884FF6AE
:10B7C400FF739A4203D1034800F08FFEEAE708BDF5
:10B7D40098220020582D002008B598B1032815D1CF
:10B7E4000B4B0C480C49C01AC008000440F003007D
:10B7F400FBF7A4F90220FFF725FE38B1BDE80840A5
:10B80400FBF7A4BCBDE80840FFF74CBF08BD00BF70
:10B81400200B0300500B03001D16030008B5032181
:10B82400044800F020FD18B1BDE80840FBF78EBCC9
:10B8340008BD00BF582D002010B5044603F08EFC4F
:10B84400204603F071FA23780C2B03D1BDE8104095
:10B85400FFF7E4BF10BDFBF779BC000070B54FF4EF
:10B864008041ACB00020FAF7A3FF08B1FBF76EFCEF
:10B87400FAF7CAFEFBF732FD08B1FBF767FC85490E
:10B884000320FFF7EBFD08B1FBF760FC01A90020E2
:10B89400FFF7DCFE08B1FBF759FC9DF80450FDF7F7
:10B8A40031FE08B1FBF752FC04F0A0FB08B1FBF732
:10B8B4004DFC002301A90120019304F05DFC08B1B3
:10B8C400FBF744FC01A804F009FD08B1FBF73EFCBA
:10B8D4002CAC112304F8B03D6F4805F0A8F86E496C
:10B8E40082B22046FFF7D6FE08B1FBF72FFC0021F9
:10B8F400082201A805F046F868494FF0C87301A86A
:10B90400CDE90113FFF7C4FE08B1FBF71FFC0021CA
:10B91400634801F0F5FF08B1FBF718FCAC220021E5
:10B9240001A805F02FF8022306228DF804308DF8C3
:10B93400072001235B4A8DF80630ADF814300692D7
:10B944008DF880304FF4967244F25063CDE923238E
:10B9540001A9554B55482A9300F006FC08B1FBF7A2
:10B96400F5FB0121514800F0FCFB514B5148019378
:10B9740001A902F0C5F808B1FBF7E8FB1C2200217D
:10B9840001A804F0FFFF00234FF4A032CDE90132F7
:10B99400ADF812304FF4F0228DF81430464B039278
:10B9A40006930322454B8DF8102001A8079300F05D
:10B9B400BDFE08B1FBF7CAFB02F084FE08B1FBF739
:10B9C400C5FB0522002101A804F0DCFF9DF804302A
:10B9D40043F00103032203F0F10362F306136FF350
:10B9E400C7138DF8043007238DF8053010238DF824
:10B9F40006309DF8073013438DF807309DF8083062
:10BA040001A813438DF8083002F0F6FE08B1FBF7E5
:10BA14009DFB2B4802F0D8FE08B1FBF797FB294B9E
:10BA2400294C2A49E41AE408240444F00304204677
:10BA3400FBF784F804F01EFE04F03CFEC6B2304668
:10BA440004F0DAFD304604F0FDFC3246204920467D
:10BA5400FBF778F8022D1AD11E492046FBF76EF841
:10BA640002F0F6FE08B1FBF771FB1B4C44F0010435
:10BA7400304604F067FDFAF7F5FE08B9FDF758FD06
:10BA840064254FF47A40A047013DFAD1F0E7FFF76F
:10BA9400C5FEEAE791B70200C61503005000A000F6
:10BAA4008C31002094220020DDB70200582D0020A4
:10BAB400A5B60200A031002071B702005BB80200F5
:10BAC4003DB80200200B0300500B0300D615030001
